:020000020000FC
:1000000008E00EBF0FEF0DBF0FEF04B90AB900E013
:1000100007B90FEF08B90FE00093000136B13F7048
:1000200040910001341721F4309300018894089521
:10003000309300010894089518EC00E005B95A9A2D
:100040000E947A005A981A95C1F714E601E005B9A2
:100050005A9A0E947A005A9800E005B95B9A0E9469
:100060007A005B981A9591F713E402E005B95A9A61
:100070000E947A005A9801E005B95B9A0E947A00C2
:100080005B9800E005B95C9A0E947A005C981A952A
:1000900061F720E012E306C012E323952A3009F04D
:1000A00001C020E0022F0E940E0018F105B95D9AF0
:1000B0000E947A005D980E94730005B95C9A0E94C4
:1000C0007A005C980E94730005B95B9A0E947A00DE
:1000D0005B980E94730005B95A9A0E947A005A9858
:1000E0001A9501F7D9CF03950A3009F0089500E079
:1000F0000895A2CF40E55AEF00005A95E9F74A95D6
:04010000D1F7089596
:00000001FF
