:020000020000FC
:1000000008E00EBF0FEF0DBF0FEF04B90AB900E013
:1000100007B90FEF08B918EC09E005B95D9A0E941D
:1000200065005D981A95C1F714E608E005B95D9A78
:100030000E9465005D9809E005B95C9A0E94650020
:100040005C981A9591F713E407E005B95D9A0E9450
:1000500065005D9808E005B95C9A0E9465005C98AF
:1000600009E005B95B9A0E9465005B981A9561F7F3
:1000700029E012E306C012E32A952F3F09F001C0E0
:1000800029E0022F05B95A9A0E9465005A980E94E9
:100090005F0005B95B9A0E9465005B980E945F0053
:1000A00005B95C9A0E9465005C980E945F0005B9E2
:1000B0005D9A0E9465005D981A9519F7DCCF0A9544
:1000C0000F3F09F0089509E0089540E55AEF000058
:0A00D0005A95E9F74A95D1F7089513
:00000001FF
