:020000020000FC
:1000000008E00EBF0FEF0DBF0FEF04B90AB900E013
:1000100007B90FEF08B918EC01E005B95A9A0E9428
:1000200039005A981A95C1F714E602E005B95A9AB0
:100030000E9439005A9801E005B95B9A0E94390084
:100040005B981A9591F713E403E005B95A9A0E9458
:1000500039005A9802E005B95B9A0E9439005B9812
:1000600001E005B95C9A0E9439005C981A9561F725
:10007000FFCF40E55AEF00005A95E9F74A95D1F7CE
:020080000895E1
:00000001FF
