:020000020000FC
:1000000008E00EBF0FEF0DBF0FEF04B90AB900E013
:1000100007B90FEF08B918EC00E005B95A9A0E9429
:1000200067005A981A95C1F714E601E005B95A9A83
:100030000E9467005A9800E005B95B9A0E94670029
:100040005B981A9591F713E402E005B95A9A0E9459
:1000500067005A9801E005B95B9A0E9467005B98B7
:1000600000E005B95C9A0E9467005C981A9561F7F8
:1000700020E012E306C012E323952A3009F001C004
:1000800020E0022F05B95D9A0E9467005D980395F4
:100090000E94620005B95C9A0E9467005C98039513
:1000A0000E94620005B95B9A0E9467005B98039505
:1000B0000E94620005B95A9A0E9467005A981A95E0
:1000C00001F7D9CF0A3009F0089500E0089540E51E
:0E00D0005AEF00005A95E9F74A95D1F70895C6
:00000001FF
